:0400000007EF00F016
:0A00080004829DED03F093EF03F076
:1006000000456D657274786520496E666F726D6124
:1006100074696F6E20546563686E6F6C6F6769658F
:10062000732E20507265737320616E79206B65792B
:1006300020746F20636F6E74696E75650A0D0059C2
:100640006F752073686F756C6420676574206261D4
:10065000636B20776861746576657220796F7520A9
:10066000747970653A0A0D0057656C636F6D652E7D
:100670002054686973206973205541525420546591
:10068000737420436F64652E0A0D0000948E949C51
:10069000AC9EAC9CAC8AAC98AC96AC84AC92AC9062
:1006A000AB8EAB9CAB9AAB88AB96AB94AB92AB905A
:1006B000B89EB88CB898B896B892B890810EAF6EC4
:1006C0009D889E989D8A9E9A120088EC03F0680E81
:1006D000026E78EC03F03F0E026E78EC03F00350EC
:1006E000D8B4FDD70350A7EC03F0000E036EF7D784
:1006F00007D002C0F6FF0800F550A7EC03F0022A6D
:1007000002C0F6FF0800F5500009D8B41200F1D776
:1007100046EC03F0010E026E78EC03F0ADEC03F052
:10072000F28CF28E1200036A04900492000EF86EAE
:10073000060EF76E000165EF03F006009EAA05D0D5
:10074000ABB2AB92AECF03F09E9A04921100016E51
:100750009EA8FED701C0ADFF12009EAAFED7AE50E4
:02076000120085
:00000001FF
